:020000040000fa
:080000000002040000000000f2
:020000040000fa
:040008008e03000063
:020000040000fa
:04000c006e0300007f
:020000040000fa
:040010007203000077
:020000040000fa
:04001400760300006f
:020000040000fa
:040018007a03000067
:020000040000fa
:04001c008e0300004f
:020000040000fa
:040020008e0300004b
:020000040000fa
:040024008e03000047
:020000040000fa
:040028008e03000043
:020000040000fa
:04002c008e0300003f
:020000040000fa
:040030008e0300003b
:020000040000fa
:040034008e03000037
:020000040000fa
:040038008e03000033
:020000040000fa
:04003c008e0300002f
:020000040000fa
:040040008e0300002b
:020000040000fa
:040044008e03000027
:020000040000fa
:040048008e03000023
:020000040000fa
:04004c008e0300001f
:020000040000fa
:040050008e0300001b
:020000040000fa
:040054008e03000017
:020000040000fa
:040058008e03000013
:020000040000fa
:04005c00020300009b
:020000040000fa
:040060008e0300000b
:020000040000fa
:040064008e03000007
:020000040000fa
:040068008e03000003
:020000040000fa
:04006c008e030000ff
:020000040000fa
:040070008e030000fb
:020000040000fa
:040074008e030000f7
:020000040000fa
:040078008e030000f3
:020000040000fa
:04007c008e030000ef
:020000040000fa
:040080008e030000eb
:020000040000fa
:040084008e030000e7
:020000040000fa
:040088008e030000e3
:020000040000fa
:04008c008e030000df
:020000040000fa
:040090008e030000db
:020000040000fa
:040094008e030000d7
:020000040000fa
:040098008e030000d3
:020000040000fa
:04009c008e030000cf
:020000040000fa
:0400a0008e030000cb
:020000040000fa
:0400a4008e030000c7
:020000040000fa
:0400a8008e030000c3
:020000040000fa
:0400ac008e030000bf
:020000040000fa
:0400b0008e030000bb
:020000040000fa
:0400b4008e030000b7
:020000040000fa
:0400b8008e030000b3
:020000040000fa
:0400bc008e030000af
:020000040000fa
:0400c0008e030000ab
:020000040000fa
:0400c4008e030000a7
:020000040000fa
:0400c8008e030000a3
:020000040000fa
:0400cc008e0300009f
:020000040000fa
:0400d0008e0300009b
:020000040000fa
:0400d4008e03000097
:020000040000fa
:0400d8008e03000093
:020000040000fa
:0400dc008e0300008f
:020000040000fa
:0400e0008e0300008b
:020000040000fa
:0400e4008e03000087
:020000040000fa
:0400e8008e03000083
:020000040000fa
:0400ec008e0300007f
:020000040000fa
:0400f0008e0300007b
:020000040000fa
:0400f4008e03000077
:020000040000fa
:0400f8008e03000073
:020000040000fa
:0400fc008e0300006f
:020000040000fa
:040100008e0300006a
:020000040000fa
:040104008e03000066
:020000040000fa
:040108008e03000062
:020000040000fa
:04010c00c802000025
:020000040000fa
:040110008e0300005a
:020000040000fa
:040114008e03000056
:020000040000fa
:040118008e03000052
:020000040000fa
:04011c008e0300004e
:020000040000fa
:040120008e0300004a
:020000040000fa
:040124008e03000046
:020000040000fa
:040128008e03000042
:020000040000fa
:04012c008e0300003e
:020000040000fa
:040130008e0300003a
:020000040000fa
:040134008e03000036
:020000040000fa
:040138008e03000032
:020000040000fa
:04013c008e0300002e
:020000040000fa
:040140008e0300002a
:020000040000fa
:040144008e03000026
:020000040000fa
:040148008e03000022
:020000040000fa
:04014c008e0300001e
:020000040000fa
:040150008e0300001a
:020000040000fa
:040208008e03000061
:020000040000fa
:04020c007e0300006d
:020000040000fa
:040210008203000065
:020000040000fa
:04021400860300005d
:020000040000fa
:040218008a03000055
:020000040000fa
:04021c008e0300004d
:020000040000fa
:040220008e03000049
:020000040000fa
:040224008e03000045
:020000040000fa
:040228008e03000041
:020000040000fa
:04022c008e0300003d
:020000040000fa
:040230008e03000039
:020000040000fa
:040234008e03000035
:020000040000fa
:040238008e03000031
:020000040000fa
:04023c008e0300002d
:020000040000fa
:040240008e03000029
:020000040000fa
:040244008e03000025
:020000040000fa
:040248008e03000021
:020000040000fa
:04024c008e0300001d
:020000040000fa
:040250008e03000019
:020000040000fa
:040254008e03000015
:020000040000fa
:040258008e03000011
:020000040000fa
:04025c008e0300000d
:020000040000fa
:040260008e03000009
:020000040000fa
:040264008e03000005
:020000040000fa
:040268008e03000001
:020000040000fa
:04026c008e030000fd
:020000040000fa
:040270008e030000f9
:020000040000fa
:040274008e030000f5
:020000040000fa
:040278008e030000f1
:020000040000fa
:04027c008e030000ed
:020000040000fa
:040280008e030000e9
:020000040000fa
:040284008e030000e5
:020000040000fa
:040288008e030000e1
:020000040000fa
:04028c008e030000dd
:020000040000fa
:040290008e030000d9
:020000040000fa
:040294008e030000d5
:020000040000fa
:040298008e030000d1
:020000040000fa
:04029c008e030000cd
:020000040000fa
:0402a0008e030000c9
:020000040000fa
:0402a4008e030000c5
:020000040000fa
:0402a8008e030000c1
:020000040000fa
:0402ac008e030000bd
:020000040000fa
:0402b0008e030000b9
:020000040000fa
:0402b4008e030000b5
:020000040000fa
:0402b8008e030000b1
:020000040000fa
:0402bc008e030000ad
:020000040000fa
:0402c0008e030000a9
:020000040000fa
:0402c4008e030000a5
:020000040000fa
:0402c8008e030000a1
:020000040000fa
:0402cc008e0300009d
:020000040000fa
:0402d0008e03000099
:020000040000fa
:0402d4008e03000095
:020000040000fa
:0402d8008e03000091
:020000040000fa
:0402dc008e0300008d
:020000040000fa
:0402e0008e03000089
:020000040000fa
:0402e4008e03000085
:020000040000fa
:0402e8008e03000081
:020000040000fa
:0402ec008e0300007d
:020000040000fa
:0402f0008e03000079
:020000040000fa
:0402f4008e03000075
:020000040000fa
:0402f8008e03000071
:020000040000fa
:0402fc008e0300006d
:020000040000fa
:040300008e03000068
:020000040000fa
:040304008e03000064
:020000040000fa
:040308008e03000060
:020000040000fa
:04030c008e0300005c
:020000040000fa
:040310008e03000058
:020000040000fa
:040314008e03000054
:020000040000fa
:040318008e03000050
:020000040000fa
:04031c008e0300004c
:020000040000fa
:040320008e03000048
:020000040000fa
:040324008e03000044
:020000040000fa
:040328008e03000040
:020000040000fa
:04032c008e0300003c
:020000040000fa
:040330008e03000038
:020000040000fa
:040334008e03000034
:020000040000fa
:040338008e03000030
:020000040000fa
:04033c008e0300002c
:020000040000fa
:040340008e03000028
:020000040000fa
:040344008e03000024
:020000040000fa
:040348008e03000020
:020000040000fa
:04034c008e0300001c
:020000040000fa
:040350008e03000018
:020000040000fa
:100400002f8020000eff20000e0188000000000059
:10041000000020000000e000020032000001200087
:100420002002880014000700bd0007000000e00063
:1004300003003a00004a20000100200002003700bb
:100440000000200001002000810f70000100320038
:1004500014000700000020000000e000020032004d
:100460000000020000000000a804020000000000dc
:100470000040da000000fe004440a9000000200017
:100480000000e0000300320000002000a00188000e
:100490004440a800000006008a1f78008b1f7800e7
:1004a0000000060091018800800478000000eb0045
:1004b0001a003700e284440032a0b4009905ba0063
:1004c000e284440032a0b4009906ba00e2844400f9
:1004d00032a0b4000006eb00476fde00fd07b2005b
:1004e000636ce10003003a00ebff07000000eb0043
:1004f0000a003700606ce10004003a00005deb0088
:100500008b05e900fdff3e00040037006168e10053
:10051000010032000086eb000b00070019c7ba008b
:100520001905ba000e04e00003003a000a00e000da
:10053000e0ff3a0000000600fe07b2009e018800be
:100540008a047800f5ff3700395dba008b05e900b1
:100550000c003200295dba008b05e900080032006a
:100560000c00e00003003a00e284440032a0b40032
:10057000f5ff370019ddba008b05e900faff3a00f4
:100580008904e800e184440032a0b40000000600c1
:10059000801f78003400f80000002000a0018800cf
:1005a000004080000000a200004088000000e00041
:1005b00009003200d621ef0050532000c00e880001
:1005c000a0a62000d00e88008b20a9003400f900de
:1005d0004f00780000400600f0f92000b00e8800bf
:1005e000a0a62000c00e880050532000d00e880026
:1005f0008b20a9003400f9004f007800004006006d
:10060000f5ff3700809fbe00821f78003400f8009d
:1006100000002000a00188002030200001302000d0
:1006200091007800908040000080e80090804000b9
:100630000080e800908040000080e800908040004a
:100640000080e800908040000080e800908040003a
:100650000080e800908040000080e800908040002a
:100660000080e800908040000080e800908040001a
:100670000080e800908040000080e800908040000a
:100680000080e800908040000081e80092804000f7
:10069000f018800000804000070033004480de0036
:1006a000b00e880085a0a9003400f9004f01780041
:1006b0004f00be00004006006f0040004480de0096
:1006c000b00e880085a0a9003400f9004f01780021
:1006d0004f00be0000400600f7ff37008020a90051
:1006e000ffff37008060a900ffff37008040a900ae
:1006f000ffff37008080a900ffff37008020a9009e
:10070000ffff37008060a900ffff37008040a9008d
:10071000ffff37008080a900ffff3700ffff370091
:0407200000000500d0
:020000040000fa
:1007240001002800200e800080806000007d2000f1
:1007340001007000200e8800f07c2000b00e8800bc
:10074400c00e8800d00e8800f1ff2300c21c2000d8
:1007540012896000f20f2c00610e8000010161001b
:100764000130210082807000610e8800f1f32f00b7
:10077400c21c20001289600001fc2f00620e800060
:10078400828060007101b300610e8800ce61a9000f
:10079400ce41a900ce21a800ce01a800d10d200091
:1007a400410e8800200e8800c221ef003000200096
:1007b400c021b7009b20a800c1e1a8002143a800e4
:1007c400f0f12f002003b6000006b30000198800e2
:1007d4002043a800c00320002223b70060c0b30058
:1007e40024e3b70095a0a80021e3a80000000600b8
:1007f4002143a800f0f12f002003b6000006b30047
:10080400001988002043a800c00320002223b70059
:1008140060c0b30024e3b70095a0a80021e3a800ba
:100824000000060001002800200e80008080600087
:10083400007d200001007000200e8800f07c200064
:10084400b00e8800c00e8800d00e8800f1ff23008f
:10085400c21c200012896000f20f2c00610e80007f
:10086400010161000130210082807000610e880066
:10087400f1f32f00c21c20001289600001fc2f003c
:10088400620e8000828060007101b300610e8800f6
:10089400ce61a900ce41a900ce21a800ce01a800b6
:1008a400d10d2000410e8800200e8800c221ef00e7
:1008b40030002000c021b7009b20a800c1e1a8009f
:1008c4000000060000fe2f004427b60000e02f00c1
:1008d4004607b600a001b300303a8800f0f32f00b9
:1008e4004427b60040a7a900a10920003200200037
:1008f4008007200033742000804978008149780003
:100904008249780071052000120020006004200054
:100914002374200080497800814978008249780056
:100924000200270001002300133a80000300610045
:0c093400810f5000fcff3a00000006009c
:020000040000fa
:10094000000800000200000000000000000000009d
:020000040000fa
:0c095000ddff070073ff0700ffff37000a
:020000040000fa
:0200000401f009
:04000000ffff0000fe
:020000040000fa
:0200000401f009
:04000800ffff0000f6
:020000040000fa
:0200000401f009
:04000c0000000000f0
:020000040000fa
:0200000401f009
:0400100006000000e6
:020000040000fa
:0200000401f009
:040014005f00000089
:020000040000fa
:0200000401f009
:04001800770000006d
:020000040000fa
:0200000401f009
:04001c00dfff000002
:00000001FF
