:020000040000fa
:080000000002040000000000f2
:020000040000fa
:0400080044030000ad
:020000040000fa
:04000c0024030000c9
:020000040000fa
:0400100028030000c1
:020000040000fa
:040014002c030000b9
:020000040000fa
:0400180030030000b1
:020000040000fa
:04001c004403000099
:020000040000fa
:040020004403000095
:020000040000fa
:040024004403000091
:020000040000fa
:04002800440300008d
:020000040000fa
:04002c004403000089
:020000040000fa
:040030004403000085
:020000040000fa
:040034004403000081
:020000040000fa
:04003800440300007d
:020000040000fa
:04003c004403000079
:020000040000fa
:040040004403000075
:020000040000fa
:040044004403000071
:020000040000fa
:04004800440300006d
:020000040000fa
:04004c004403000069
:020000040000fa
:040050004403000065
:020000040000fa
:040054004403000061
:020000040000fa
:04005800440300005d
:020000040000fa
:04005c001403000089
:020000040000fa
:040060004403000055
:020000040000fa
:040064004403000051
:020000040000fa
:04006800440300004d
:020000040000fa
:04006c004403000049
:020000040000fa
:040070004403000045
:020000040000fa
:040074004403000041
:020000040000fa
:04007800440300003d
:020000040000fa
:04007c004403000039
:020000040000fa
:040080004403000035
:020000040000fa
:040084004403000031
:020000040000fa
:04008800440300002d
:020000040000fa
:04008c004403000029
:020000040000fa
:040090004403000025
:020000040000fa
:040094004403000021
:020000040000fa
:04009800440300001d
:020000040000fa
:04009c004403000019
:020000040000fa
:0400a0004403000015
:020000040000fa
:0400a4004403000011
:020000040000fa
:0400a800440300000d
:020000040000fa
:0400ac004403000009
:020000040000fa
:0400b0004403000005
:020000040000fa
:0400b4004403000001
:020000040000fa
:0400b80044030000fd
:020000040000fa
:0400bc0044030000f9
:020000040000fa
:0400c00044030000f5
:020000040000fa
:0400c40044030000f1
:020000040000fa
:0400c80044030000ed
:020000040000fa
:0400cc0044030000e9
:020000040000fa
:0400d00044030000e5
:020000040000fa
:0400d40044030000e1
:020000040000fa
:0400d80044030000dd
:020000040000fa
:0400dc0044030000d9
:020000040000fa
:0400e00044030000d5
:020000040000fa
:0400e40044030000d1
:020000040000fa
:0400e80044030000cd
:020000040000fa
:0400ec0044030000c9
:020000040000fa
:0400f00044030000c5
:020000040000fa
:0400f40044030000c1
:020000040000fa
:0400f80044030000bd
:020000040000fa
:0400fc0044030000b9
:020000040000fa
:0401000044030000b4
:020000040000fa
:0401040044030000b0
:020000040000fa
:0401080044030000ac
:020000040000fa
:04010c00c802000025
:020000040000fa
:0401100044030000a4
:020000040000fa
:0401140044030000a0
:020000040000fa
:04011800440300009c
:020000040000fa
:04011c004403000098
:020000040000fa
:040120004403000094
:020000040000fa
:040124004403000090
:020000040000fa
:04012800440300008c
:020000040000fa
:04012c004403000088
:020000040000fa
:040130004403000084
:020000040000fa
:040134004403000080
:020000040000fa
:04013800440300007c
:020000040000fa
:04013c004403000078
:020000040000fa
:040140004403000074
:020000040000fa
:040144004403000070
:020000040000fa
:04014800440300006c
:020000040000fa
:04014c004403000068
:020000040000fa
:040150004403000064
:020000040000fa
:0402080044030000ab
:020000040000fa
:04020c0034030000b7
:020000040000fa
:0402100038030000af
:020000040000fa
:040214003c030000a7
:020000040000fa
:04021800400300009f
:020000040000fa
:04021c004403000097
:020000040000fa
:040220004403000093
:020000040000fa
:04022400440300008f
:020000040000fa
:04022800440300008b
:020000040000fa
:04022c004403000087
:020000040000fa
:040230004403000083
:020000040000fa
:04023400440300007f
:020000040000fa
:04023800440300007b
:020000040000fa
:04023c004403000077
:020000040000fa
:040240004403000073
:020000040000fa
:04024400440300006f
:020000040000fa
:04024800440300006b
:020000040000fa
:04024c004403000067
:020000040000fa
:040250004403000063
:020000040000fa
:04025400440300005f
:020000040000fa
:04025800440300005b
:020000040000fa
:04025c004403000057
:020000040000fa
:040260004403000053
:020000040000fa
:04026400440300004f
:020000040000fa
:04026800440300004b
:020000040000fa
:04026c004403000047
:020000040000fa
:040270004403000043
:020000040000fa
:04027400440300003f
:020000040000fa
:04027800440300003b
:020000040000fa
:04027c004403000037
:020000040000fa
:040280004403000033
:020000040000fa
:04028400440300002f
:020000040000fa
:04028800440300002b
:020000040000fa
:04028c004403000027
:020000040000fa
:040290004403000023
:020000040000fa
:04029400440300001f
:020000040000fa
:04029800440300001b
:020000040000fa
:04029c004403000017
:020000040000fa
:0402a0004403000013
:020000040000fa
:0402a400440300000f
:020000040000fa
:0402a800440300000b
:020000040000fa
:0402ac004403000007
:020000040000fa
:0402b0004403000003
:020000040000fa
:0402b40044030000ff
:020000040000fa
:0402b80044030000fb
:020000040000fa
:0402bc0044030000f7
:020000040000fa
:0402c00044030000f3
:020000040000fa
:0402c40044030000ef
:020000040000fa
:0402c80044030000eb
:020000040000fa
:0402cc0044030000e7
:020000040000fa
:0402d00044030000e3
:020000040000fa
:0402d40044030000df
:020000040000fa
:0402d80044030000db
:020000040000fa
:0402dc0044030000d7
:020000040000fa
:0402e00044030000d3
:020000040000fa
:0402e40044030000cf
:020000040000fa
:0402e80044030000cb
:020000040000fa
:0402ec0044030000c7
:020000040000fa
:0402f00044030000c3
:020000040000fa
:0402f40044030000bf
:020000040000fa
:0402f80044030000bb
:020000040000fa
:0402fc0044030000b7
:020000040000fa
:0403000044030000b2
:020000040000fa
:0403040044030000ae
:020000040000fa
:0403080044030000aa
:020000040000fa
:04030c0044030000a6
:020000040000fa
:0403100044030000a2
:020000040000fa
:04031400440300009e
:020000040000fa
:04031800440300009a
:020000040000fa
:04031c004403000096
:020000040000fa
:040320004403000092
:020000040000fa
:04032400440300008e
:020000040000fa
:04032800440300008a
:020000040000fa
:04032c004403000086
:020000040000fa
:040330004403000082
:020000040000fa
:04033400440300007e
:020000040000fa
:04033800440300007a
:020000040000fa
:04033c004403000076
:020000040000fa
:040340004403000072
:020000040000fa
:04034400440300006e
:020000040000fa
:04034800440300006a
:020000040000fa
:04034c004403000066
:020000040000fa
:040350004403000062
:020000040000fa
:100400002fb220000eff20000e0188000000000027
:10041000000020000000e000020032000001200087
:100420002002880014000700980007000000e00088
:1004300003003a0080342000010020000200370051
:100440000000200001002000810f70000100320038
:1004500014000700000020000000e000020032004d
:100460000000020000000000720602000000000010
:100470000040da000000fe004440a9000000200017
:100480000000e0000300320000002000a00188000e
:100490004440a800000006008a1f78008b1f7800e7
:1004a0000000060091018800800478000000eb0045
:1004b0001a003700e284440032a0b4009905ba0063
:1004c000e284440032a0b4009906ba00e2844400f9
:1004d00032a0b4000006eb00476fde00fd07b2005b
:1004e000636ce10003003a00ebff07000000eb0043
:1004f0000a003700606ce10004003a00005deb0088
:100500008b05e900fdff3e00040037006168e10053
:10051000010032000086eb000b00070019c7ba008b
:100520001905ba000e04e00003003a000a00e000da
:10053000e0ff3a0000000600fe07b2009e018800be
:100540008a047800f5ff3700395dba008b05e900b1
:100550000c003200295dba008b05e900080032006a
:100560000c00e00003003a00e284440032a0b40032
:10057000f5ff370019ddba008b05e900faff3a00f4
:100580008904e800e184440032a0b40000000600c1
:10059000809fbe00821f78003400f8000000200019
:1005a000a001880000598000000140000180200067
:1005b00061017900b20e8800220420000001410090
:1005c0000201410061017900c20e8800520820003a
:1005d000000141000201410061017900d20e880052
:1005e0000000e80000598800810c2000810f5000b5
:1005f000050032008b20a9003400f9004f0178007b
:100600004f00be00004006000000eb0000598800cb
:100610008b20a9003400f9004f0178004f00be0084
:1006200000400600f8ff37003400f800881f78000b
:1006300008002000a80188004f04780085a0a900c8
:100640003400f900004006008020a900ffff3700b9
:100650008060a900ffff37008040a900ffff37003e
:100660008080a900ffff37008020a900ffff37002e
:100670008060a900ffff37008040a900ffff37001e
:100680008080a900ffff3700ffff37000000050052
:020000040000fa
:10069000000800002003000002000000d0070f0047
:1006a000084e08008c08cb0008090900470984009f
:1006b00009c10900fe093a000a750a00b00aea00f9
:1006c0000a240b005c0b94000bca0b00000c3400d6
:1006d0000c680c009a0ccb000cfb0c00290d56008a
:1006e0000d820d00ac0dd5000dfc0d00220e460054
:1006f0000e690e00890ea9000ec60e00e20efc0067
:100700000e140f002a0f3e000f510f00610f7000f2
:100710000f7d0f00870f90000f970f009c0f9f0019
:100720000fa00f009f0f9c000f970f00900f8700e6
:100730000f7d0f00700f61000f510f003e0f2a0058
:100740000f140f00fc0ee2000ec60e00a90e890069
:100750000e690e00460e22000efc0d00d50dac00f9
:100760000d820d00560d29000dfb0c00cb0c9a00dc
:100770000c680c00340c00000cca0b00940b5c00dd
:100780000b240b00ea0ab0000a750a003a0afe00c0
:1007900009c109008409470009090900cb088c0038
:1007a000084e08000f08d0000791070052071400f8
:1007b00007d5060097065900061c0600df05a200b3
:1007c000056605002b05f00004b604007c04440017
:1007d000040c0400d603a000036c030038030600d9
:1007e00003d50200a5027700024a02001e02f400af
:1007f00001cb0100a4017e00015a0100370117005e
:1008000001f70000da00be0000a400008c007600b2
:10081000006200004f003f0000300000230019007c
:1008200000100000090004000001000000000100a9
:10083000000400000900100000190000230030002f
:10084000003f00004f006200007600008c00a40012
:1008500000be0000da00f7000017010037015a005f
:10086000017e0100a401cb0001f401001e024a0038
:1008700002770200a502d5000206030038036c00cf
:1008800003a00300d6030c00044404007c04b6005b
:1008900004f004002b05660005a20500df051c001e
:1008a000065906009706d500061407005207910066
:1008b00007d007000f084e00088c0800cb0809007d
:1008c000094709008409c10009fe09003a0a7500b8
:1008d0000ab00a00ea0a24000b5c0b00940bca0061
:1008e0000b000c00340c68000c9a0c00cb0cfb00c5
:1008f0000c290d00560d82000dac0d00d50dfc002d
:100900000d220e00460e69000e890e00a90ec600cb
:100910000ee20e00fc0e14000f2a0f003e0f5100d5
:100920000f610f00700f7d000f870f00900f970071
:100930000f9c0f009f0fa0000f9f0f009c0f9700b0
:100940000f900f00870f7d000f700f00610f510097
:100950000f3e0f002a0f14000ffc0e00e20ec6001f
:100960000ea90e00890e69000e460e00220efc0034
:100970000dd50d00ac0d82000d560d00290dfb00ac
:100980000ccb0c009a0c68000c340c00000cca0054
:100990000b940b005c0b24000bea0a00b00a7500f4
:1009a0000a3a0a00fe09c100098409004709090042
:1009b00009cb08008c084e00080f0800d0079100f2
:1009c000075207001407d5000697060059061c00b9
:1009d00006df0500a2056600052b0500f004b60041
:1009e000047c040044040c0004d60300a0036c0043
:1009f000033803000603d50002a5020077024a006f
:100a0000021e0200f401cb0001a401007e015a0085
:100a1000013701001701f70000da0000be00a40052
:100a2000008c000076006200004f00003f003000a4
:100a3000002300001900100000090000040001005c
:100a4000000000000100040000090000100019006f
:100a50000023000030003f00004f000062007600dd
:100a6000008c0000a400be0000da0000f7001700b0
:100a7000013701005a017e0001a40100cb01f400fe
:100a8000011e02004a02770002a50200d5020600fc
:100a9000033803006c03a00003d603000c044400d9
:100aa000047c0400b604f000042b05006605a200d7
:100ab00005df05001c06590006970600d506140040
:100ac0000752070091070000200b00000200000001
:080ad00000000000000000001e
:020000040000fa
:100ad80030ff2f00c021b60000002800c401b60076
:100ae800017d200000807000200e8800f0ff2300a8
:100af800cc21b600f20f2c00600e800000016100ce
:100b08000030210002007000600e8800f0f32f0012
:100b1800cc21b60000fc2f00cc01b6007001b30058
:100b2800600e8800ce61a900ce41a900ce21a800a0
:100b3800ce01a800c881a800c801a800c8a1a800c3
:100b4800c821a800c8c1a800c841a800210e880073
:100b5800c221ef0030002000c021b7009b20a80070
:100b6800c1e1a8002143a800f0f12f002003b6003e
:100b78000006b300001988002043a800c003200025
:100b88002223b70060c0b30024e3b70095a0a800f3
:100b980021e3a800000006002143a800f0f12f007f
:100ba8002003b6000006b300001988002043a800ff
:100bb800c00320002223b70060c0b30024e3b700bd
:100bc80095a0a80021e3a8000000060030ff2f0030
:100bd800c021b60000002800c401b600017d200035
:100be80000807000200e8800f0ff2300cc21b600a2
:100bf800f20f2c00600e800000016100003021001f
:100c080002007000600e8800f0f32f00cc21b600bf
:100c180000fc2f00cc01b6007001b300600e880004
:100c2800ce61a900ce41a900ce21a800ce01a8001e
:100c3800c881a800c801a800c8a1a800c821a800a8
:100c4800c8c1a800c841a800210e8800c221ef0031
:100c580030002000c021b7009b20a800c1e1a800f7
:100c68000000060000fe2f004427b60000e02f0019
:100c78004607b6002001b300303a8800f0f32f0091
:100c88004427b60040a7a900a1092000320020008f
:100c9800800720003374200080497800814978005b
:100ca80082497800710520001200200060042000ad
:100cb80023742000804978008149780082497800af
:100cc8000200270001002300133a8000030061009e
:100cd800810f5000fcff3a000000060036060200b3
:100ce800000000006c05020000000000ffff370054
:020000040000fa
:0200000401f009
:04000000ffff0000fe
:020000040000fa
:0200000401f009
:04000800ffff0000f6
:020000040000fa
:0200000401f009
:04000c0000000000f0
:020000040000fa
:0200000401f009
:0400100006000000e6
:020000040000fa
:0200000401f009
:040014005f00000089
:020000040000fa
:0200000401f009
:04001800770000006d
:020000040000fa
:0200000401f009
:04001c00dfff000002
:00000001FF
